
OS_Language_C.elf:     file format elf32-avr

Sections:
Idx Name          Size      VMA       LMA       File off  Algn
  0 .data         00000006  00800100  0000054c  000005e0  2**0
                  CONTENTS, ALLOC, LOAD, DATA
  1 .text         0000054c  00000000  00000000  00000094  2**1
                  CONTENTS, ALLOC, LOAD, READONLY, CODE
  2 .bss          00000012  00800106  00800106  000005e6  2**0
                  ALLOC
  3 .comment      00000030  00000000  00000000  000005e6  2**0
                  CONTENTS, READONLY
  4 .note.gnu.avr.deviceinfo 0000003c  00000000  00000000  00000618  2**2
                  CONTENTS, READONLY
  5 .debug_aranges 000000a8  00000000  00000000  00000654  2**0
                  CONTENTS, READONLY, DEBUGGING
  6 .debug_info   00000ebd  00000000  00000000  000006fc  2**0
                  CONTENTS, READONLY, DEBUGGING
  7 .debug_abbrev 000009b0  00000000  00000000  000015b9  2**0
                  CONTENTS, READONLY, DEBUGGING
  8 .debug_line   0000063a  00000000  00000000  00001f69  2**0
                  CONTENTS, READONLY, DEBUGGING
  9 .debug_frame  000001b0  00000000  00000000  000025a4  2**2
                  CONTENTS, READONLY, DEBUGGING
 10 .debug_str    000004fe  00000000  00000000  00002754  2**0
                  CONTENTS, READONLY, DEBUGGING
 11 .debug_loc    0000057f  00000000  00000000  00002c52  2**0
                  CONTENTS, READONLY, DEBUGGING
 12 .debug_ranges 000000c8  00000000  00000000  000031d1  2**0
                  CONTENTS, READONLY, DEBUGGING

Disassembly of section .text:

00000000 <__vectors>:
   0:	45 c0       	rjmp	.+138    	; 0x8c <__ctors_end>
   2:	00 00       	nop
   4:	60 c0       	rjmp	.+192    	; 0xc6 <__bad_interrupt>
   6:	00 00       	nop
   8:	5e c0       	rjmp	.+188    	; 0xc6 <__bad_interrupt>
   a:	00 00       	nop
   c:	5c c0       	rjmp	.+184    	; 0xc6 <__bad_interrupt>
   e:	00 00       	nop
  10:	5a c0       	rjmp	.+180    	; 0xc6 <__bad_interrupt>
  12:	00 00       	nop
  14:	58 c0       	rjmp	.+176    	; 0xc6 <__bad_interrupt>
  16:	00 00       	nop
  18:	56 c0       	rjmp	.+172    	; 0xc6 <__bad_interrupt>
  1a:	00 00       	nop
  1c:	54 c0       	rjmp	.+168    	; 0xc6 <__bad_interrupt>
  1e:	00 00       	nop
  20:	52 c0       	rjmp	.+164    	; 0xc6 <__bad_interrupt>
  22:	00 00       	nop
  24:	50 c0       	rjmp	.+160    	; 0xc6 <__bad_interrupt>
  26:	00 00       	nop
  28:	50 c0       	rjmp	.+160    	; 0xca <__vector_10>
  2a:	00 00       	nop
  2c:	4c c0       	rjmp	.+152    	; 0xc6 <__bad_interrupt>
  2e:	00 00       	nop
  30:	4a c0       	rjmp	.+148    	; 0xc6 <__bad_interrupt>
  32:	00 00       	nop
  34:	48 c0       	rjmp	.+144    	; 0xc6 <__bad_interrupt>
  36:	00 00       	nop
  38:	46 c0       	rjmp	.+140    	; 0xc6 <__bad_interrupt>
  3a:	00 00       	nop
  3c:	44 c0       	rjmp	.+136    	; 0xc6 <__bad_interrupt>
  3e:	00 00       	nop
  40:	42 c0       	rjmp	.+132    	; 0xc6 <__bad_interrupt>
  42:	00 00       	nop
  44:	40 c0       	rjmp	.+128    	; 0xc6 <__bad_interrupt>
  46:	00 00       	nop
  48:	3e c0       	rjmp	.+124    	; 0xc6 <__bad_interrupt>
  4a:	00 00       	nop
  4c:	3c c0       	rjmp	.+120    	; 0xc6 <__bad_interrupt>
  4e:	00 00       	nop
  50:	3a c0       	rjmp	.+116    	; 0xc6 <__bad_interrupt>
  52:	00 00       	nop
  54:	38 c0       	rjmp	.+112    	; 0xc6 <__bad_interrupt>
  56:	00 00       	nop
  58:	36 c0       	rjmp	.+108    	; 0xc6 <__bad_interrupt>
  5a:	00 00       	nop
  5c:	34 c0       	rjmp	.+104    	; 0xc6 <__bad_interrupt>
  5e:	00 00       	nop
  60:	32 c0       	rjmp	.+100    	; 0xc6 <__bad_interrupt>
  62:	00 00       	nop
  64:	30 c0       	rjmp	.+96     	; 0xc6 <__bad_interrupt>
  66:	00 00       	nop
  68:	2e c0       	rjmp	.+92     	; 0xc6 <__bad_interrupt>
  6a:	00 00       	nop
  6c:	2c c0       	rjmp	.+88     	; 0xc6 <__bad_interrupt>
  6e:	00 00       	nop
  70:	2a c0       	rjmp	.+84     	; 0xc6 <__bad_interrupt>
  72:	00 00       	nop
  74:	28 c0       	rjmp	.+80     	; 0xc6 <__bad_interrupt>
  76:	00 00       	nop
  78:	26 c0       	rjmp	.+76     	; 0xc6 <__bad_interrupt>
  7a:	00 00       	nop
  7c:	24 c0       	rjmp	.+72     	; 0xc6 <__bad_interrupt>
  7e:	00 00       	nop
  80:	22 c0       	rjmp	.+68     	; 0xc6 <__bad_interrupt>
  82:	00 00       	nop
  84:	20 c0       	rjmp	.+64     	; 0xc6 <__bad_interrupt>
  86:	00 00       	nop
  88:	1e c0       	rjmp	.+60     	; 0xc6 <__bad_interrupt>
	...

0000008c <__ctors_end>:
  8c:	11 24       	eor	r1, r1
  8e:	1f be       	out	0x3f, r1	; 63
  90:	cf ef       	ldi	r28, 0xFF	; 255
  92:	d0 e1       	ldi	r29, 0x10	; 16
  94:	de bf       	out	0x3e, r29	; 62
  96:	cd bf       	out	0x3d, r28	; 61

00000098 <__do_clear_bss>:
  98:	21 e0       	ldi	r18, 0x01	; 1
  9a:	a6 e0       	ldi	r26, 0x06	; 6
  9c:	b1 e0       	ldi	r27, 0x01	; 1
  9e:	01 c0       	rjmp	.+2      	; 0xa2 <.do_clear_bss_start>

000000a0 <.do_clear_bss_loop>:
  a0:	1d 92       	st	X+, r1

000000a2 <.do_clear_bss_start>:
  a2:	a8 31       	cpi	r26, 0x18	; 24
  a4:	b2 07       	cpc	r27, r18
  a6:	e1 f7       	brne	.-8      	; 0xa0 <.do_clear_bss_loop>

000000a8 <__do_copy_data>:
  a8:	11 e0       	ldi	r17, 0x01	; 1
  aa:	a0 e0       	ldi	r26, 0x00	; 0
  ac:	b1 e0       	ldi	r27, 0x01	; 1
  ae:	ec e4       	ldi	r30, 0x4C	; 76
  b0:	f5 e0       	ldi	r31, 0x05	; 5
  b2:	00 e0       	ldi	r16, 0x00	; 0
  b4:	0b bf       	out	0x3b, r16	; 59
  b6:	02 c0       	rjmp	.+4      	; 0xbc <__do_copy_data+0x14>
  b8:	07 90       	elpm	r0, Z+
  ba:	0d 92       	st	X+, r0
  bc:	a6 30       	cpi	r26, 0x06	; 6
  be:	b1 07       	cpc	r27, r17
  c0:	d9 f7       	brne	.-10     	; 0xb8 <__do_copy_data+0x10>
  c2:	e5 d0       	rcall	.+458    	; 0x28e <main>
  c4:	41 c2       	rjmp	.+1154   	; 0x548 <_exit>

000000c6 <__bad_interrupt>:
  c6:	9c cf       	rjmp	.-200    	; 0x0 <__vectors>

000000c8 <Idle>:
}

inline void initMainQueue(){
	uint8_t index = 0;
	do{
		main_task_queue[index] = Idle;
  c8:	08 95       	ret

000000ca <__vector_10>:
  ca:	1f 92       	push	r1
  cc:	0f 92       	push	r0
  ce:	0f b6       	in	r0, 0x3f	; 63
  d0:	0f 92       	push	r0
  d2:	11 24       	eor	r1, r1
  d4:	0b b6       	in	r0, 0x3b	; 59
  d6:	0f 92       	push	r0
  d8:	2f 93       	push	r18
  da:	3f 93       	push	r19
  dc:	4f 93       	push	r20
  de:	5f 93       	push	r21
  e0:	6f 93       	push	r22
  e2:	7f 93       	push	r23
  e4:	8f 93       	push	r24
  e6:	9f 93       	push	r25
  e8:	af 93       	push	r26
  ea:	bf 93       	push	r27
  ec:	cf 93       	push	r28
  ee:	df 93       	push	r29
  f0:	ef 93       	push	r30
  f2:	ff 93       	push	r31
  f4:	82 e8       	ldi	r24, 0x82	; 130
  f6:	84 bd       	out	0x24, r24	; 36
  f8:	c0 91 12 01 	lds	r28, 0x0112	; 0x800112 <list_head>
  fc:	d0 91 13 01 	lds	r29, 0x0113	; 0x800113 <list_head+0x1>
 100:	20 97       	sbiw	r28, 0x00	; 0
 102:	d9 f1       	breq	.+118    	; 0x17a <__vector_10+0xb0>
 104:	a0 e0       	ldi	r26, 0x00	; 0
 106:	b0 e0       	ldi	r27, 0x00	; 0
 108:	01 c0       	rjmp	.+2      	; 0x10c <__vector_10+0x42>
 10a:	ec 01       	movw	r28, r24
 10c:	8c 81       	ldd	r24, Y+4	; 0x04
 10e:	9d 81       	ldd	r25, Y+5	; 0x05
 110:	00 97       	sbiw	r24, 0x00	; 0
 112:	21 f0       	breq	.+8      	; 0x11c <__vector_10+0x52>
 114:	01 97       	sbiw	r24, 0x01	; 1
 116:	9d 83       	std	Y+5, r25	; 0x05
 118:	8c 83       	std	Y+4, r24	; 0x04
 11a:	2a c0       	rjmp	.+84     	; 0x170 <__vector_10+0xa6>
 11c:	e6 e0       	ldi	r30, 0x06	; 6
 11e:	f1 e0       	ldi	r31, 0x01	; 1
 120:	80 e0       	ldi	r24, 0x00	; 0
 122:	90 e0       	ldi	r25, 0x00	; 0
 124:	04 c0       	rjmp	.+8      	; 0x12e <__vector_10+0x64>
 126:	01 96       	adiw	r24, 0x01	; 1
 128:	86 30       	cpi	r24, 0x06	; 6
 12a:	91 05       	cpc	r25, r1
 12c:	91 f0       	breq	.+36     	; 0x152 <__vector_10+0x88>
 12e:	ac 01       	movw	r20, r24
 130:	21 91       	ld	r18, Z+
 132:	31 91       	ld	r19, Z+
 134:	60 e0       	ldi	r22, 0x00	; 0
 136:	24 36       	cpi	r18, 0x64	; 100
 138:	36 07       	cpc	r19, r22
 13a:	11 f0       	breq	.+4      	; 0x140 <__vector_10+0x76>
 13c:	23 2b       	or	r18, r19
 13e:	99 f7       	brne	.-26     	; 0x126 <__vector_10+0x5c>
 140:	8a 81       	ldd	r24, Y+2	; 0x02
 142:	9b 81       	ldd	r25, Y+3	; 0x03
 144:	44 0f       	add	r20, r20
 146:	55 1f       	adc	r21, r21
 148:	fa 01       	movw	r30, r20
 14a:	ea 5f       	subi	r30, 0xFA	; 250
 14c:	fe 4f       	sbci	r31, 0xFE	; 254
 14e:	91 83       	std	Z+1, r25	; 0x01
 150:	80 83       	st	Z, r24
 152:	10 97       	sbiw	r26, 0x00	; 0
 154:	39 f4       	brne	.+14     	; 0x164 <__vector_10+0x9a>
 156:	88 81       	ld	r24, Y
 158:	99 81       	ldd	r25, Y+1	; 0x01
 15a:	90 93 13 01 	sts	0x0113, r25	; 0x800113 <list_head+0x1>
 15e:	80 93 12 01 	sts	0x0112, r24	; 0x800112 <list_head>
 162:	04 c0       	rjmp	.+8      	; 0x16c <__vector_10+0xa2>
 164:	88 81       	ld	r24, Y
 166:	99 81       	ldd	r25, Y+1	; 0x01
 168:	8d 93       	st	X+, r24
 16a:	9c 93       	st	X, r25
 16c:	ce 01       	movw	r24, r28
 16e:	63 d1       	rcall	.+710    	; 0x436 <free>
 170:	88 81       	ld	r24, Y
 172:	99 81       	ldd	r25, Y+1	; 0x01
 174:	de 01       	movw	r26, r28
 176:	00 97       	sbiw	r24, 0x00	; 0
 178:	41 f6       	brne	.-112    	; 0x10a <__vector_10+0x40>
 17a:	ff 91       	pop	r31
 17c:	ef 91       	pop	r30
 17e:	df 91       	pop	r29
 180:	cf 91       	pop	r28
 182:	bf 91       	pop	r27
 184:	af 91       	pop	r26
 186:	9f 91       	pop	r25
 188:	8f 91       	pop	r24
 18a:	7f 91       	pop	r23
 18c:	6f 91       	pop	r22
 18e:	5f 91       	pop	r21
 190:	4f 91       	pop	r20
 192:	3f 91       	pop	r19
 194:	2f 91       	pop	r18
 196:	0f 90       	pop	r0
 198:	0b be       	out	0x3b, r0	; 59
 19a:	0f 90       	pop	r0
 19c:	0f be       	out	0x3f, r0	; 63
 19e:	0f 90       	pop	r0
 1a0:	1f 90       	pop	r1
 1a2:	18 95       	reti

000001a4 <initRTOS>:
 1a4:	82 e8       	ldi	r24, 0x82	; 130
 1a6:	84 bd       	out	0x24, r24	; 36
 1a8:	87 b7       	in	r24, 0x37	; 55
 1aa:	80 64       	ori	r24, 0x40	; 64
 1ac:	87 bf       	out	0x37, r24	; 55
 1ae:	85 b5       	in	r24, 0x25	; 37
 1b0:	83 60       	ori	r24, 0x03	; 3
 1b2:	85 bd       	out	0x25, r24	; 37
 1b4:	78 94       	sei
 1b6:	08 95       	ret

000001b8 <InitTasklist>:
 1b8:	86 e0       	ldi	r24, 0x06	; 6
 1ba:	90 e0       	ldi	r25, 0x00	; 0
 1bc:	a4 d0       	rcall	.+328    	; 0x306 <malloc>
 1be:	fc 01       	movw	r30, r24
 1c0:	90 93 13 01 	sts	0x0113, r25	; 0x800113 <list_head+0x1>
 1c4:	80 93 12 01 	sts	0x0112, r24	; 0x800112 <list_head>
 1c8:	89 2b       	or	r24, r25
 1ca:	51 f0       	breq	.+20     	; 0x1e0 <InitTasklist+0x28>
 1cc:	11 82       	std	Z+1, r1	; 0x01
 1ce:	10 82       	st	Z, r1
 1d0:	84 e6       	ldi	r24, 0x64	; 100
 1d2:	90 e0       	ldi	r25, 0x00	; 0
 1d4:	93 83       	std	Z+3, r25	; 0x03
 1d6:	82 83       	std	Z+2, r24	; 0x02
 1d8:	81 e0       	ldi	r24, 0x01	; 1
 1da:	90 e0       	ldi	r25, 0x00	; 0
 1dc:	95 83       	std	Z+5, r25	; 0x05
 1de:	84 83       	std	Z+4, r24	; 0x04
 1e0:	08 95       	ret

000001e2 <createTask>:
 1e2:	0f 93       	push	r16
 1e4:	1f 93       	push	r17
 1e6:	cf 93       	push	r28
 1e8:	df 93       	push	r29
 1ea:	8c 01       	movw	r16, r24
 1ec:	eb 01       	movw	r28, r22
 1ee:	86 e0       	ldi	r24, 0x06	; 6
 1f0:	90 e0       	ldi	r25, 0x00	; 0
 1f2:	89 d0       	rcall	.+274    	; 0x306 <malloc>
 1f4:	00 97       	sbiw	r24, 0x00	; 0
 1f6:	39 f0       	breq	.+14     	; 0x206 <createTask+0x24>
 1f8:	fc 01       	movw	r30, r24
 1fa:	11 82       	std	Z+1, r1	; 0x01
 1fc:	10 82       	st	Z, r1
 1fe:	13 83       	std	Z+3, r17	; 0x03
 200:	02 83       	std	Z+2, r16	; 0x02
 202:	d5 83       	std	Z+5, r29	; 0x05
 204:	c4 83       	std	Z+4, r28	; 0x04
 206:	df 91       	pop	r29
 208:	cf 91       	pop	r28
 20a:	1f 91       	pop	r17
 20c:	0f 91       	pop	r16
 20e:	08 95       	ret

00000210 <addTaskToTasklist>:
 210:	20 91 12 01 	lds	r18, 0x0112	; 0x800112 <list_head>
 214:	30 91 13 01 	lds	r19, 0x0113	; 0x800113 <list_head+0x1>
 218:	fc 01       	movw	r30, r24
 21a:	31 83       	std	Z+1, r19	; 0x01
 21c:	20 83       	st	Z, r18
 21e:	90 93 13 01 	sts	0x0113, r25	; 0x800113 <list_head+0x1>
 222:	80 93 12 01 	sts	0x0112, r24	; 0x800112 <list_head>
 226:	08 95       	ret

00000228 <ledON>:
 228:	d9 9a       	sbi	0x1b, 1	; 27
 22a:	64 ef       	ldi	r22, 0xF4	; 244
 22c:	71 e0       	ldi	r23, 0x01	; 1
 22e:	8c e1       	ldi	r24, 0x1C	; 28
 230:	91 e0       	ldi	r25, 0x01	; 1
 232:	d7 df       	rcall	.-82     	; 0x1e2 <createTask>
 234:	ed cf       	rjmp	.-38     	; 0x210 <addTaskToTasklist>
 236:	08 95       	ret

00000238 <ledOff>:
 238:	d9 98       	cbi	0x1b, 1	; 27
 23a:	64 ef       	ldi	r22, 0xF4	; 244
 23c:	71 e0       	ldi	r23, 0x01	; 1
 23e:	84 e1       	ldi	r24, 0x14	; 20
 240:	91 e0       	ldi	r25, 0x01	; 1
 242:	cf df       	rcall	.-98     	; 0x1e2 <createTask>
 244:	e5 cf       	rjmp	.-54     	; 0x210 <addTaskToTasklist>
 246:	08 95       	ret

00000248 <ledOff1>:
 248:	d8 98       	cbi	0x1b, 0	; 27
 24a:	68 ec       	ldi	r22, 0xC8	; 200
 24c:	70 e0       	ldi	r23, 0x00	; 0
 24e:	8c e2       	ldi	r24, 0x2C	; 44
 250:	91 e0       	ldi	r25, 0x01	; 1
 252:	c7 df       	rcall	.-114    	; 0x1e2 <createTask>
 254:	dd cf       	rjmp	.-70     	; 0x210 <addTaskToTasklist>
 256:	08 95       	ret

00000258 <ledON1>:
 258:	d8 9a       	sbi	0x1b, 0	; 27
 25a:	68 ec       	ldi	r22, 0xC8	; 200
 25c:	70 e0       	ldi	r23, 0x00	; 0
 25e:	84 e2       	ldi	r24, 0x24	; 36
 260:	91 e0       	ldi	r25, 0x01	; 1
 262:	bf df       	rcall	.-130    	; 0x1e2 <createTask>
 264:	d5 cf       	rjmp	.-86     	; 0x210 <addTaskToTasklist>
 266:	08 95       	ret

00000268 <initSystem>:
		index++;
	} while (index != TASK_QUEUE_SIZE + 1);
}

inline void initSystem(){
	initRTOS();
 268:	9d df       	rcall	.-198    	; 0x1a4 <initRTOS>
	InitTasklist();
 26a:	a6 df       	rcall	.-180    	; 0x1b8 <InitTasklist>
 26c:	e6 e0       	ldi	r30, 0x06	; 6
}

inline void initMainQueue(){
	uint8_t index = 0;
	do{
		main_task_queue[index] = Idle;
 26e:	f1 e0       	ldi	r31, 0x01	; 1
 270:	84 e6       	ldi	r24, 0x64	; 100
 272:	90 e0       	ldi	r25, 0x00	; 0
 274:	91 83       	std	Z+1, r25	; 0x01
 276:	80 83       	st	Z, r24
 278:	93 83       	std	Z+3, r25	; 0x03
 27a:	82 83       	std	Z+2, r24	; 0x02
 27c:	95 83       	std	Z+5, r25	; 0x05
 27e:	84 83       	std	Z+4, r24	; 0x04
 280:	97 83       	std	Z+7, r25	; 0x07
 282:	86 83       	std	Z+6, r24	; 0x06
 284:	91 87       	std	Z+9, r25	; 0x09
 286:	80 87       	std	Z+8, r24	; 0x08
 288:	93 87       	std	Z+11, r25	; 0x0b
 28a:	82 87       	std	Z+10, r24	; 0x0a
 28c:	08 95       	ret

0000028e <main>:
 28e:	ec df       	rcall	.-40     	; 0x268 <initSystem>
	addTaskToTasklist(task);
}

int main() {
	initSystem();
	volatile Task *task = createTask(ledON, 5);
 290:	65 e0       	ldi	r22, 0x05	; 5
 292:	70 e0       	ldi	r23, 0x00	; 0
 294:	84 e1       	ldi	r24, 0x14	; 20
 296:	91 e0       	ldi	r25, 0x01	; 1
	addTaskToTasklist(task);
 298:	a4 df       	rcall	.-184    	; 0x1e2 <createTask>
 29a:	ba df       	rcall	.-140    	; 0x210 <addTaskToTasklist>
	task = createTask(ledON1, 6);
 29c:	66 e0       	ldi	r22, 0x06	; 6
 29e:	70 e0       	ldi	r23, 0x00	; 0
 2a0:	8c e2       	ldi	r24, 0x2C	; 44
 2a2:	91 e0       	ldi	r25, 0x01	; 1
	addTaskToTasklist(task);
 2a4:	9e df       	rcall	.-196    	; 0x1e2 <createTask>
 2a6:	b4 df       	rcall	.-152    	; 0x210 <addTaskToTasklist>
	sei();
 2a8:	78 94       	sei
	DDRA |= 3;
 2aa:	8a b3       	in	r24, 0x1a	; 26
 2ac:	83 60       	ori	r24, 0x03	; 3
 2ae:	8a bb       	out	0x1a, r24	; 26
}

inline void TaskDispatcher (){
	uint8_t	index = 0;
	cli();
	TPTR task = main_task_queue[0];
 2b0:	06 e0       	ldi	r16, 0x06	; 6
 2b2:	11 e0       	ldi	r17, 0x01	; 1
 2b4:	c0 e1       	ldi	r28, 0x10	; 16
 2b6:	d1 e0       	ldi	r29, 0x01	; 1
		(Idle)();
	} else {
		for(index = 0; index != TASK_QUEUE_SIZE; index++) {
			main_task_queue[index] = main_task_queue[index+1];
		}
		main_task_queue[TASK_QUEUE_SIZE] = Idle;
 2b8:	0f 2e       	mov	r0, r31
 2ba:	f4 e6       	ldi	r31, 0x64	; 100
 2bc:	ef 2e       	mov	r14, r31
 2be:	f0 e0       	ldi	r31, 0x00	; 0
 2c0:	ff 2e       	mov	r15, r31
 2c2:	f0 2d       	mov	r31, r0
	
}

inline void TaskDispatcher (){
	uint8_t	index = 0;
	cli();
 2c4:	f8 94       	cli
	TPTR task = main_task_queue[0];
 2c6:	d8 01       	movw	r26, r16
 2c8:	ed 91       	ld	r30, X+
 2ca:	fc 91       	ld	r31, X
	if (task == NULL) {
 2cc:	30 97       	sbiw	r30, 0x00	; 0
 2ce:	11 f4       	brne	.+4      	; 0x2d4 <main+0x46>
		sei();
 2d0:	78 94       	sei
 2d2:	f8 cf       	rjmp	.-16     	; 0x2c4 <main+0x36>
		return;
	} else if (task == Idle) {
 2d4:	b0 e0       	ldi	r27, 0x00	; 0
 2d6:	e4 36       	cpi	r30, 0x64	; 100
 2d8:	fb 07       	cpc	r31, r27
 2da:	11 f4       	brne	.+4      	; 0x2e0 <main+0x52>
		sei();
 2dc:	78 94       	sei
 2de:	f2 cf       	rjmp	.-28     	; 0x2c4 <main+0x36>
 2e0:	a6 e0       	ldi	r26, 0x06	; 6
 2e2:	b1 e0       	ldi	r27, 0x01	; 1
		(Idle)();
	} else {
		for(index = 0; index != TASK_QUEUE_SIZE; index++) {
			main_task_queue[index] = main_task_queue[index+1];
 2e4:	12 96       	adiw	r26, 0x02	; 2
 2e6:	8d 91       	ld	r24, X+
 2e8:	9c 91       	ld	r25, X
 2ea:	13 97       	sbiw	r26, 0x03	; 3
 2ec:	8d 93       	st	X+, r24
 2ee:	9d 93       	st	X+, r25
		return;
	} else if (task == Idle) {
		sei();
		(Idle)();
	} else {
		for(index = 0; index != TASK_QUEUE_SIZE; index++) {
 2f0:	ac 17       	cp	r26, r28
 2f2:	bd 07       	cpc	r27, r29
 2f4:	b9 f7       	brne	.-18     	; 0x2e4 <main+0x56>
			main_task_queue[index] = main_task_queue[index+1];
		}
		main_task_queue[TASK_QUEUE_SIZE] = Idle;
 2f6:	d8 01       	movw	r26, r16
 2f8:	1b 96       	adiw	r26, 0x0b	; 11
 2fa:	fc 92       	st	X, r15
 2fc:	ee 92       	st	-X, r14
 2fe:	1a 97       	sbiw	r26, 0x0a	; 10
		sei();
 300:	78 94       	sei
		(task)();// Переходим к задаче
 302:	09 95       	icall
 304:	df cf       	rjmp	.-66     	; 0x2c4 <main+0x36>

00000306 <malloc>:
 306:	0f 93       	push	r16
 308:	1f 93       	push	r17
 30a:	cf 93       	push	r28
 30c:	df 93       	push	r29
 30e:	82 30       	cpi	r24, 0x02	; 2
 310:	91 05       	cpc	r25, r1
 312:	10 f4       	brcc	.+4      	; 0x318 <malloc+0x12>
 314:	82 e0       	ldi	r24, 0x02	; 2
 316:	90 e0       	ldi	r25, 0x00	; 0
 318:	e0 91 16 01 	lds	r30, 0x0116	; 0x800116 <__flp>
 31c:	f0 91 17 01 	lds	r31, 0x0117	; 0x800117 <__flp+0x1>
 320:	20 e0       	ldi	r18, 0x00	; 0
 322:	30 e0       	ldi	r19, 0x00	; 0
 324:	a0 e0       	ldi	r26, 0x00	; 0
 326:	b0 e0       	ldi	r27, 0x00	; 0
 328:	30 97       	sbiw	r30, 0x00	; 0
 32a:	19 f1       	breq	.+70     	; 0x372 <malloc+0x6c>
 32c:	40 81       	ld	r20, Z
 32e:	51 81       	ldd	r21, Z+1	; 0x01
 330:	02 81       	ldd	r16, Z+2	; 0x02
 332:	13 81       	ldd	r17, Z+3	; 0x03
 334:	48 17       	cp	r20, r24
 336:	59 07       	cpc	r21, r25
 338:	c8 f0       	brcs	.+50     	; 0x36c <malloc+0x66>
 33a:	84 17       	cp	r24, r20
 33c:	95 07       	cpc	r25, r21
 33e:	69 f4       	brne	.+26     	; 0x35a <malloc+0x54>
 340:	10 97       	sbiw	r26, 0x00	; 0
 342:	31 f0       	breq	.+12     	; 0x350 <malloc+0x4a>
 344:	12 96       	adiw	r26, 0x02	; 2
 346:	0c 93       	st	X, r16
 348:	12 97       	sbiw	r26, 0x02	; 2
 34a:	13 96       	adiw	r26, 0x03	; 3
 34c:	1c 93       	st	X, r17
 34e:	27 c0       	rjmp	.+78     	; 0x39e <malloc+0x98>
 350:	00 93 16 01 	sts	0x0116, r16	; 0x800116 <__flp>
 354:	10 93 17 01 	sts	0x0117, r17	; 0x800117 <__flp+0x1>
 358:	22 c0       	rjmp	.+68     	; 0x39e <malloc+0x98>
 35a:	21 15       	cp	r18, r1
 35c:	31 05       	cpc	r19, r1
 35e:	19 f0       	breq	.+6      	; 0x366 <malloc+0x60>
 360:	42 17       	cp	r20, r18
 362:	53 07       	cpc	r21, r19
 364:	18 f4       	brcc	.+6      	; 0x36c <malloc+0x66>
 366:	9a 01       	movw	r18, r20
 368:	bd 01       	movw	r22, r26
 36a:	ef 01       	movw	r28, r30
 36c:	df 01       	movw	r26, r30
 36e:	f8 01       	movw	r30, r16
 370:	db cf       	rjmp	.-74     	; 0x328 <malloc+0x22>
 372:	21 15       	cp	r18, r1
 374:	31 05       	cpc	r19, r1
 376:	f9 f0       	breq	.+62     	; 0x3b6 <malloc+0xb0>
 378:	28 1b       	sub	r18, r24
 37a:	39 0b       	sbc	r19, r25
 37c:	24 30       	cpi	r18, 0x04	; 4
 37e:	31 05       	cpc	r19, r1
 380:	80 f4       	brcc	.+32     	; 0x3a2 <malloc+0x9c>
 382:	8a 81       	ldd	r24, Y+2	; 0x02
 384:	9b 81       	ldd	r25, Y+3	; 0x03
 386:	61 15       	cp	r22, r1
 388:	71 05       	cpc	r23, r1
 38a:	21 f0       	breq	.+8      	; 0x394 <malloc+0x8e>
 38c:	fb 01       	movw	r30, r22
 38e:	93 83       	std	Z+3, r25	; 0x03
 390:	82 83       	std	Z+2, r24	; 0x02
 392:	04 c0       	rjmp	.+8      	; 0x39c <malloc+0x96>
 394:	90 93 17 01 	sts	0x0117, r25	; 0x800117 <__flp+0x1>
 398:	80 93 16 01 	sts	0x0116, r24	; 0x800116 <__flp>
 39c:	fe 01       	movw	r30, r28
 39e:	32 96       	adiw	r30, 0x02	; 2
 3a0:	44 c0       	rjmp	.+136    	; 0x42a <__LOCK_REGION_LENGTH__+0x2a>
 3a2:	fe 01       	movw	r30, r28
 3a4:	e2 0f       	add	r30, r18
 3a6:	f3 1f       	adc	r31, r19
 3a8:	81 93       	st	Z+, r24
 3aa:	91 93       	st	Z+, r25
 3ac:	22 50       	subi	r18, 0x02	; 2
 3ae:	31 09       	sbc	r19, r1
 3b0:	39 83       	std	Y+1, r19	; 0x01
 3b2:	28 83       	st	Y, r18
 3b4:	3a c0       	rjmp	.+116    	; 0x42a <__LOCK_REGION_LENGTH__+0x2a>
 3b6:	20 91 14 01 	lds	r18, 0x0114	; 0x800114 <__brkval>
 3ba:	30 91 15 01 	lds	r19, 0x0115	; 0x800115 <__brkval+0x1>
 3be:	23 2b       	or	r18, r19
 3c0:	41 f4       	brne	.+16     	; 0x3d2 <malloc+0xcc>
 3c2:	20 91 02 01 	lds	r18, 0x0102	; 0x800102 <__malloc_heap_start>
 3c6:	30 91 03 01 	lds	r19, 0x0103	; 0x800103 <__malloc_heap_start+0x1>
 3ca:	30 93 15 01 	sts	0x0115, r19	; 0x800115 <__brkval+0x1>
 3ce:	20 93 14 01 	sts	0x0114, r18	; 0x800114 <__brkval>
 3d2:	20 91 00 01 	lds	r18, 0x0100	; 0x800100 <__data_start>
 3d6:	30 91 01 01 	lds	r19, 0x0101	; 0x800101 <__data_start+0x1>
 3da:	21 15       	cp	r18, r1
 3dc:	31 05       	cpc	r19, r1
 3de:	41 f4       	brne	.+16     	; 0x3f0 <malloc+0xea>
 3e0:	2d b7       	in	r18, 0x3d	; 61
 3e2:	3e b7       	in	r19, 0x3e	; 62
 3e4:	40 91 04 01 	lds	r20, 0x0104	; 0x800104 <__malloc_margin>
 3e8:	50 91 05 01 	lds	r21, 0x0105	; 0x800105 <__malloc_margin+0x1>
 3ec:	24 1b       	sub	r18, r20
 3ee:	35 0b       	sbc	r19, r21
 3f0:	e0 91 14 01 	lds	r30, 0x0114	; 0x800114 <__brkval>
 3f4:	f0 91 15 01 	lds	r31, 0x0115	; 0x800115 <__brkval+0x1>
 3f8:	e2 17       	cp	r30, r18
 3fa:	f3 07       	cpc	r31, r19
 3fc:	a0 f4       	brcc	.+40     	; 0x426 <__LOCK_REGION_LENGTH__+0x26>
 3fe:	2e 1b       	sub	r18, r30
 400:	3f 0b       	sbc	r19, r31
 402:	28 17       	cp	r18, r24
 404:	39 07       	cpc	r19, r25
 406:	78 f0       	brcs	.+30     	; 0x426 <__LOCK_REGION_LENGTH__+0x26>
 408:	ac 01       	movw	r20, r24
 40a:	4e 5f       	subi	r20, 0xFE	; 254
 40c:	5f 4f       	sbci	r21, 0xFF	; 255
 40e:	24 17       	cp	r18, r20
 410:	35 07       	cpc	r19, r21
 412:	48 f0       	brcs	.+18     	; 0x426 <__LOCK_REGION_LENGTH__+0x26>
 414:	4e 0f       	add	r20, r30
 416:	5f 1f       	adc	r21, r31
 418:	50 93 15 01 	sts	0x0115, r21	; 0x800115 <__brkval+0x1>
 41c:	40 93 14 01 	sts	0x0114, r20	; 0x800114 <__brkval>
 420:	81 93       	st	Z+, r24
 422:	91 93       	st	Z+, r25
 424:	02 c0       	rjmp	.+4      	; 0x42a <__LOCK_REGION_LENGTH__+0x2a>
 426:	e0 e0       	ldi	r30, 0x00	; 0
 428:	f0 e0       	ldi	r31, 0x00	; 0
 42a:	cf 01       	movw	r24, r30
 42c:	df 91       	pop	r29
 42e:	cf 91       	pop	r28
 430:	1f 91       	pop	r17
 432:	0f 91       	pop	r16
 434:	08 95       	ret

00000436 <free>:
 436:	cf 93       	push	r28
 438:	df 93       	push	r29
 43a:	00 97       	sbiw	r24, 0x00	; 0
 43c:	09 f4       	brne	.+2      	; 0x440 <free+0xa>
 43e:	81 c0       	rjmp	.+258    	; 0x542 <free+0x10c>
 440:	fc 01       	movw	r30, r24
 442:	32 97       	sbiw	r30, 0x02	; 2
 444:	13 82       	std	Z+3, r1	; 0x03
 446:	12 82       	std	Z+2, r1	; 0x02
 448:	a0 91 16 01 	lds	r26, 0x0116	; 0x800116 <__flp>
 44c:	b0 91 17 01 	lds	r27, 0x0117	; 0x800117 <__flp+0x1>
 450:	10 97       	sbiw	r26, 0x00	; 0
 452:	81 f4       	brne	.+32     	; 0x474 <free+0x3e>
 454:	20 81       	ld	r18, Z
 456:	31 81       	ldd	r19, Z+1	; 0x01
 458:	82 0f       	add	r24, r18
 45a:	93 1f       	adc	r25, r19
 45c:	20 91 14 01 	lds	r18, 0x0114	; 0x800114 <__brkval>
 460:	30 91 15 01 	lds	r19, 0x0115	; 0x800115 <__brkval+0x1>
 464:	28 17       	cp	r18, r24
 466:	39 07       	cpc	r19, r25
 468:	51 f5       	brne	.+84     	; 0x4be <free+0x88>
 46a:	f0 93 15 01 	sts	0x0115, r31	; 0x800115 <__brkval+0x1>
 46e:	e0 93 14 01 	sts	0x0114, r30	; 0x800114 <__brkval>
 472:	67 c0       	rjmp	.+206    	; 0x542 <free+0x10c>
 474:	ed 01       	movw	r28, r26
 476:	20 e0       	ldi	r18, 0x00	; 0
 478:	30 e0       	ldi	r19, 0x00	; 0
 47a:	ce 17       	cp	r28, r30
 47c:	df 07       	cpc	r29, r31
 47e:	40 f4       	brcc	.+16     	; 0x490 <free+0x5a>
 480:	4a 81       	ldd	r20, Y+2	; 0x02
 482:	5b 81       	ldd	r21, Y+3	; 0x03
 484:	9e 01       	movw	r18, r28
 486:	41 15       	cp	r20, r1
 488:	51 05       	cpc	r21, r1
 48a:	f1 f0       	breq	.+60     	; 0x4c8 <free+0x92>
 48c:	ea 01       	movw	r28, r20
 48e:	f5 cf       	rjmp	.-22     	; 0x47a <free+0x44>
 490:	d3 83       	std	Z+3, r29	; 0x03
 492:	c2 83       	std	Z+2, r28	; 0x02
 494:	40 81       	ld	r20, Z
 496:	51 81       	ldd	r21, Z+1	; 0x01
 498:	84 0f       	add	r24, r20
 49a:	95 1f       	adc	r25, r21
 49c:	c8 17       	cp	r28, r24
 49e:	d9 07       	cpc	r29, r25
 4a0:	59 f4       	brne	.+22     	; 0x4b8 <free+0x82>
 4a2:	88 81       	ld	r24, Y
 4a4:	99 81       	ldd	r25, Y+1	; 0x01
 4a6:	84 0f       	add	r24, r20
 4a8:	95 1f       	adc	r25, r21
 4aa:	02 96       	adiw	r24, 0x02	; 2
 4ac:	91 83       	std	Z+1, r25	; 0x01
 4ae:	80 83       	st	Z, r24
 4b0:	8a 81       	ldd	r24, Y+2	; 0x02
 4b2:	9b 81       	ldd	r25, Y+3	; 0x03
 4b4:	93 83       	std	Z+3, r25	; 0x03
 4b6:	82 83       	std	Z+2, r24	; 0x02
 4b8:	21 15       	cp	r18, r1
 4ba:	31 05       	cpc	r19, r1
 4bc:	29 f4       	brne	.+10     	; 0x4c8 <free+0x92>
 4be:	f0 93 17 01 	sts	0x0117, r31	; 0x800117 <__flp+0x1>
 4c2:	e0 93 16 01 	sts	0x0116, r30	; 0x800116 <__flp>
 4c6:	3d c0       	rjmp	.+122    	; 0x542 <free+0x10c>
 4c8:	e9 01       	movw	r28, r18
 4ca:	fb 83       	std	Y+3, r31	; 0x03
 4cc:	ea 83       	std	Y+2, r30	; 0x02
 4ce:	49 91       	ld	r20, Y+
 4d0:	59 91       	ld	r21, Y+
 4d2:	c4 0f       	add	r28, r20
 4d4:	d5 1f       	adc	r29, r21
 4d6:	ec 17       	cp	r30, r28
 4d8:	fd 07       	cpc	r31, r29
 4da:	61 f4       	brne	.+24     	; 0x4f4 <free+0xbe>
 4dc:	80 81       	ld	r24, Z
 4de:	91 81       	ldd	r25, Z+1	; 0x01
 4e0:	84 0f       	add	r24, r20
 4e2:	95 1f       	adc	r25, r21
 4e4:	02 96       	adiw	r24, 0x02	; 2
 4e6:	e9 01       	movw	r28, r18
 4e8:	99 83       	std	Y+1, r25	; 0x01
 4ea:	88 83       	st	Y, r24
 4ec:	82 81       	ldd	r24, Z+2	; 0x02
 4ee:	93 81       	ldd	r25, Z+3	; 0x03
 4f0:	9b 83       	std	Y+3, r25	; 0x03
 4f2:	8a 83       	std	Y+2, r24	; 0x02
 4f4:	e0 e0       	ldi	r30, 0x00	; 0
 4f6:	f0 e0       	ldi	r31, 0x00	; 0
 4f8:	12 96       	adiw	r26, 0x02	; 2
 4fa:	8d 91       	ld	r24, X+
 4fc:	9c 91       	ld	r25, X
 4fe:	13 97       	sbiw	r26, 0x03	; 3
 500:	00 97       	sbiw	r24, 0x00	; 0
 502:	19 f0       	breq	.+6      	; 0x50a <free+0xd4>
 504:	fd 01       	movw	r30, r26
 506:	dc 01       	movw	r26, r24
 508:	f7 cf       	rjmp	.-18     	; 0x4f8 <free+0xc2>
 50a:	8d 91       	ld	r24, X+
 50c:	9c 91       	ld	r25, X
 50e:	11 97       	sbiw	r26, 0x01	; 1
 510:	9d 01       	movw	r18, r26
 512:	2e 5f       	subi	r18, 0xFE	; 254
 514:	3f 4f       	sbci	r19, 0xFF	; 255
 516:	82 0f       	add	r24, r18
 518:	93 1f       	adc	r25, r19
 51a:	20 91 14 01 	lds	r18, 0x0114	; 0x800114 <__brkval>
 51e:	30 91 15 01 	lds	r19, 0x0115	; 0x800115 <__brkval+0x1>
 522:	28 17       	cp	r18, r24
 524:	39 07       	cpc	r19, r25
 526:	69 f4       	brne	.+26     	; 0x542 <free+0x10c>
 528:	30 97       	sbiw	r30, 0x00	; 0
 52a:	29 f4       	brne	.+10     	; 0x536 <free+0x100>
 52c:	10 92 17 01 	sts	0x0117, r1	; 0x800117 <__flp+0x1>
 530:	10 92 16 01 	sts	0x0116, r1	; 0x800116 <__flp>
 534:	02 c0       	rjmp	.+4      	; 0x53a <free+0x104>
 536:	13 82       	std	Z+3, r1	; 0x03
 538:	12 82       	std	Z+2, r1	; 0x02
 53a:	b0 93 15 01 	sts	0x0115, r27	; 0x800115 <__brkval+0x1>
 53e:	a0 93 14 01 	sts	0x0114, r26	; 0x800114 <__brkval>
 542:	df 91       	pop	r29
 544:	cf 91       	pop	r28
 546:	08 95       	ret

00000548 <_exit>:
 548:	f8 94       	cli

0000054a <__stop_program>:
 54a:	ff cf       	rjmp	.-2      	; 0x54a <__stop_program>
